:020000040800F2
:1000000028040020510D0008450C0008470C00088A
:1000100000000000000000000000000000000000E0
:10002000000000000000000000000000490C000873
:1000300000000000000000004B0C00084D0C000800
:10004000D30600080000000023070008FB0A000890
:10005000030C00082F0D00083B0D00087D0D000863
:10006000000000007F0D0008810D0008830D0008CE
:10007000850D0008870D0008890D000800000000AC
:100080008B0D00088D0D00088F0D0008910D0008E4
:10009000930D0008950D0008970D0008990D0008B4
:1000A0009B0D00089D0D00089F0D0008A10D000884
:1000B000A30D0008A50D0008FEB507001BD0A84C35
:1000C0003878C00719D5A16838200840E168802534
:1000D000AD02102808D18807800F032806D0796860
:1000E0006808814234D13BE00828F8D120680540F7
:1000F00003D07868002800D1B7E1387880077BD535
:10010000A06838210140E268B948BA4D10294ED1A3
:100110009207920F022A4CD0F968002900D196E08C
:10012000216808403969014321602068A10D01431D
:10013000216000F0ADFA3E0007002068400500D5C0
:100140007DE000F0A5FAC01B0328F6D30320FEBD16
:10015000A022D202914207D1216882000A43226084
:1001600021680843206007E02068A349014021601E
:100170002068A24901402160786800280BD000F077
:1001800087FA060020682840B7D100F081FA801B6A
:100190006528F7D3DAE700F07BFA060020682840EC
:1001A000ABD000F075FA801B6528F7D3CEE70029A5
:1001B000B2D12268520502D5FA68002A3ED06268A0
:1001C00015407A6912022A43626000290ED1216823
:1001D0000840396901432160A64801212268920440
:1001E000520F914000F05AFAA3490860A3480068F2
:1001F00000F070FA002821D10225387800070AD5CE
:10020000A06838210140182931D1206E284002D041
:10021000B869002812D03878400700D4A9E000203F
:100220000190A06838210140202942D1E06D0540AD
:1002300000D19EE0B868002800D09AE015E160681F
:10024000054070690002284360603700D4E72068E9
:100250008B490140216000F01BFA05002068400531
:10026000CAD500F015FA401B0328F7D36EE7B8692A
:100270000028206E0ED001210143216600F008FA0B
:100280000600206E2840C6D100F002FA801B032829
:10029000F7D35BE701218843206600F0F9F90600F7
:1002A000206E2840B7D000F0F3F9801B0328F7D365
:1002B0004CE7E806E16B014008D1E16B0143E163E3
:1002C000E16B084000900098012001906D4D286876
:1002D000C00512D4A00D0090286800990143296040
:1002E00000F0D6F9060028680099014005D100F019
:1002F000CFF9801B0328F6D328E7B868012101282D
:1003000005D00528E06D06D104220243E265E06DC8
:100310000143E16505E08843E065E06D0421884321
:10032000E0650226B86800280CD000F0B1F905009D
:10033000E06D304016D100F0ABF9401BA649884271
:10034000F6D303E700F0A4F90500E06D304009D0D2
:1003500000F09EF9401BA0498842F6D3F6E600BFA4
:10036000001002400198002803D0E06B9B49014037
:10037000E163F86900287AD0A16838220A40102A7F
:1003800054D08026B60496490228206838D101400E
:10039000216000F07DF905002068304005D000F0B4
:1003A00077F9401B0328F7D3D0E6E0688D49014078
:1003B000386A0843796A0143B86A00020843F96A57
:1003C0000143386B0843E0602068710801432160F5
:1003D000E068F1000143E16000F05AF9050020688F
:1003E000304044D100F054F9401B0328F7D3ADE668
:1003F000FFC7FFFFFF80FFFFFFFFFEFFFFFFFBFFC9
:1004000001402160E06803218843E060E06897498B
:100410000140E16000F03CF905002068304026D042
:1004200000F036F9401B0328F7D38FE601281CD0D3
:10043000E0688107890F3A6A914216D17021014024
:100440007A6A914211D1FE21C9010140BA6A1202B1
:1004500091420AD1F82189030140FA6A914204D1FC
:10046000400F4007396B884201D00120FEBD0020BB
:10047000FEBD00000024F4000C0000200400002059
:10048000FFFEFFFF00700040F8B5070066D0009146
:10049000774800684007400F884218D2744C2068A3
:1004A0000721884300990143216000F0F1F8009D85
:1004B000060020684007400FA84207D000F0E8F887
:1004C000801B45498842F4D30320F2BD009539686A
:1004D000694C022001420CD0490704D5A168E022F2
:1004E000D2010A43A260A168624A0A40B968114376
:1004F000A1600725ED433978C90732D5796801290C
:1005000018D12068800329D5A06828400143A16044
:1005100000F0BEF83E000700A06838210140706876
:10052000C00081421CD000F0B3F8C01B2A498842A9
:10053000F2D3C9E7022902D12068800103E0002933
:1005400003D120684005DFD408E0032903D1226EDF
:100550001040D9D102E0E26D1040D5D10120F2BDAA
:1005600037000098424909684907490F884217D265
:100570003F4800680540009828433D49086000F066
:1005800087F8009D06003A4800684007400FA842DF
:1005900006D000F07DF8801B0F498842F3D393E723
:1005A0003878400705D5A06834490140F868084309
:1005B000A06000F019F83249A2681205120F9200EB
:1005C000895CC906C90EC8402E4908602E480068DB
:1005D00000F080F8F2BD000089130000FFFFFFEF7C
:1005E000FFFFFFFE8C80C11F30B507212748224C3A
:1005F0003823A2681A4006D123680122DB0A194079
:100600008A4011001EE04208A5681D40082D01D156
:10061000100030BDA5681D40102D16D1E368E568B7
:100620002D092940491C7F259B079B0F032B00D1D7
:10063000100000F033F8E168090A0D406843E168F2
:10064000490F491C00F02AF830BDA0681840202846
:1006500002D18020000230BDA0680340182B02D1D7
:10066000FA20C00130BD002030BD0000FFFFFEEFCA
:1006700000200240FFF0FFFF00100240FF8FFFFF4D
:10068000040C00080C000020040000200024F400EA
:1006900001480068704700BF00000020094214D0E4
:1006A00088420FD30122030C01D10004120400235D
:1006B00000185B418B4200D35B1A5241F8D31900FA
:1006C0001000704701000020704708B500F028F8BE
:1006D00008BDFEE770B5060000240F4DA96800298B
:1006E00016D0FA208000FFF7D9FF01000B48006800
:1006F000FFF7D4FF00F037F8002809D1042E07D205
:10070000002231000020C04300F029F86E6000E0B4
:100710000124200070BD00BF000000200C0000205C
:100720007047FEE710B5C20018231340FF249C4019
:10073000E2438907090E9940030004D414489B083A
:100740009B00C01806E0134B0007000F0838800814
:100750008000181803681A401143016010BD80B56D
:10076000FFF7E0FF01BD10B5401E8021490488421B
:1007700001D3012010BD084C606003210020C0435C
:10078000FFF7D0FF0020A0600721216010BD00000E
:1007900000E400E01CED00E010E000E0FCB5002209
:1007A000012300932CE0052703E0554FB842FAD10E
:1007B0000327A74037432F60524C2568DC43254070
:1007C0004E68F60300D51D434E4E356075682540D2
:1007D0004F68BF0300D51D4375604B4D2E68264002
:1007E0004D68ED0200D51E43474D2E606E683440C3
:1007F0004E68B60202D526001C0034436C60521CC1
:100800000C682300D34066D0009B934001932340A3
:10081000F5D04C68022C01D0122C10D1D408A400C1
:1008200005192C6A97001C263E400F27B740BC4391
:100830000F69BC4637006646BE4026432E620668F6
:1008400054000327A740FD432E400F79BF07BF0F79
:10085000A740374307604E68012E05D0022E03D013
:10086000112E01D0122E11D186682E40CF68A740DC
:10087000374387604768019EB743BC464E683709D7
:10088000009E3E40964067463E434660C6683540FF
:100890008E68A6402E43C6604C68E400AFD51B4C62
:1008A0009508AD0065192E68D70018243C400F2725
:1008B000A740BE43A027FF05B84201D1002778E733
:1008C000134FB84201D1009F73E7124FB84200D0D6
:1008D0006BE702276DE7F3BD0069084000D00120F7
:1008E000C0B27047002A01D08161704781627047B1
:1008F00042690A4001D081627047816170470000FF
:10090000000C00508018024000180240601802409D
:100910000004005000080050364A506011807047B3
:1009200010B50024334801884068FFF7D5FF002840
:1009300000D10124200010BD38B5012818D1A02411
:10094000E4052D48C07801280ED011D303280BD020
:100950000ED20A2520212000FFF7CAFFFA2000F05E
:100960004FF86D1E04D0F5E720212000FFF7C0FFEF
:10097000012032BD21480178002900D17047F8B527
:1009800000240470FFF7CCFF1B4D2870EA88130089
:100990006F7829790326002818D0884214D1002FB7
:1009A00002D0781E6870F1BD652B02DA521CEA8015
:1009B000F1BDA978491EA970090619D1EE70FFF79B
:1009C000BBFFAE70EC70F1BD2871F1BD323A332A35
:1009D00001D2022004E0002F02D1322B00DA0120E4
:1009E000E8700800FFF7A8FF05206870EC80AE7083
:1009F000F1BD0000100000201800002020000020A1
:100A000038B50500FFF744FE04000020C0438542CE
:100A100002D0044880682D18FFF73AFE001BA84258
:100A2000FAD331BD00000020F8B586B000F066F8BA
:100A30008025AD011B4F29003800FFF76DFF00F046
:100A400035F81422002101A800F06CF804211648A2
:100A500002680A4302600268114000910099012473
:100A60000168214301600068204000900098A026A2
:100A7000F605002220213000FFF734FF0195002504
:100A80000295039501A93800FFF788FE2020019008
:100A900002940395049501A93000FFF77FFEFFF74C
:100AA00069FFFCE7000800503410024018B591B00F
:100AB0003422002104A800F035F8102200216846F5
:100AC00000F030F88020800000F036F8022004901A
:100AD000FE30079000240894402009900B9404A84D
:100AE000FFF7EAFA07200090019402940394002192
:100AF0006846FFF7C9FC12B010BDFEE710B5002430
:100B000007480168820D0A4302600020FFF7E2FDFA
:100B1000002801D0012401E000F034F8200010BDCD
:100B20000020024010B5040008001100020020005F
:100B300000F040F8200010BD10B50E4C21680E4AA0
:100B40000A4002432260610D884210D10B480068C0
:100B5000062148430A49FFF7A1FD401C00E0401E62
:100B60006169490503D50028F9D1032010BD002093
:100B700010BD000000700040FFF9FFFF0C000020D6
:100B800040420F0081B00A48012142680A43426096
:100B900042681140009100998021490502680A438A
:100BA0000260006801400091009801B0704700BFEA
:100BB0003C1002401206130A1A43130C1A4300BFDA
:100BC000094205D0830705D00270401C491EF9D1A7
:100BD000704700001300103906D330B4140015001C
:100BE00010393CC0FCD230BC490700D30CC000D542
:100BF00004C0890002D30280801C002900D5027045
:100C00007047FEE700000000000000000000000048
:100C100000000000000000000000000000000000D4
:100C200000000000010000000200000003000000BE
:100C3000040000000600000007000000080000009B
:100C4000090000007047FEE77047704710B500F0DC
:100C500017F8094A094841888B1801211C0401D161
:100C600001700A238488A218140401D14170322231
:100C70004380828010BD0000FFFF000020000020A4
:100C800002480168826889180160704700000020EE
:100C900030B501684118446862088A188368E4071F
:100CA00004D54C461B1901E0641C06D191420BD0BF
:100CB0000C7864B2491C0D78491C1D705B1C002C1B
:100CC000F2D4641EF7D5F1E70C3030BD10B50749FA
:100CD00079441831064C7C44163404E0081D0A6837
:100CE000891888470100A142F8D110BD0800000012
:100CF000140000009DFFFFFFAE0000003000000068
:100D00000000002000F00DF8002801D0FFF7DEFF02
:100D100000BF00BF002000BF00BFFFF785FE00F04E
:100D200002F80120704780B500F002F801BDFEE72F
:100D30000746384600F002F8FBE7FEE780B500BF43
:100D400000BF024A11001820ABBEFBE726000200DC
:100D50000148804701480047610D0008710D0008F7
:100D600080200005014908607047000008ED00E0A0
:100D700000BF00BF00BF00BFFFF7C4FFFEE7FEE7F4
:100D8000FEE7FEE7FEE7FEE7FEE7FEE7FEE7FEE73B
:100D9000FEE7FEE7FEE7FEE7FEE7FEE7FEE7FEE72B
:100DA000FEE7FEE7FEE7FC000004FD000001FC009A
:0E0DB0000124F4F6000005F800030A003200EA
:0400000508000D7171
:00000001FF
